242041825586MARIAMA NUNES MOREIRA                                       0334748852008ETG660266620110502000000000000000000000000000000N000 0000
242041873477PAOLA MAIA FAGUNDES                                         0106542605409ETG660266620120301000000000000000000000000000000N000 0000
242040223299LUCY CUPELLO AMARAL ANTONIO                                 6907775476810EST150210120221205410542009050500000000008000000N000N0000
242040223300ISABELLE CURY                                               7438488071514EST010000000000000000000000000000000056400000000S000S0000